:400000000040002011000000DD070000DD07000010B500F003FCC04610B51222164B1A60302001F06DFA0024144B1C60144B154A1A601549154A1160154A1A60E0214901C8
:40004000144A1160144A1A6080221206134B1A60134A144B1A60C022134B1A607F3A134B1A601349082001F06FF9082001F056F9104B1C6010BDC046300010400003014013
:400080000000014040FF0080007F1A0600050140C0FF00800403014041FF008008010B404902040000010B40440101400C0101407D1700000C020B4010B572B600240FE064
:4000C00030486200131959000B00411889881A5AC31858880004104300F07AFB0134E4B2012CEDD9274801000C31143000F046FB80221205244B1A6080221204234B1A601F
:400100003022234B1A60234A234B1A60AA221201224B1A6099231B04214A1360214A13608022D20220490A6020490B6020490B602049087806230343DBB20B701E4B1A609F
:4001400070221E4B1A60DB2252031D4B1A6007221C4B1A60B032FF321B4B1A6002231B4A13601B491B4A11601B4A136004221B4B1A608532FF321A4B1A60FFF74DFF00F0CB
:4001800017FB10BD0025000000000240000102400002024099EE0000000302400006024010500F4020500F4028500F4040500F4070500F4000700F400800044000010440EB
:4001C00008010440000204400802044000030440B10D00000803044018030440000604400806044010B5064C2378002B07D1054B002B02D0044800E000BF0123237010BD5E
:400200004801002000000000A8220000084B10B5002B03D00749084800E000BF07480368002B00D110BD064B002BFBD09847F9E7000000004C010020A8220000C000002096
:40024000000000003138C3B2352B2BD89800174B1B589F46012028E0032026E0042024E0052022E0062020E007201EE008201CE009201AE00A2018E00B2016E00C2014E055
:400280000D2012E00E2010E00F200EE00A200CE00B200AE00C2008E00D2006E00E2004E00F2002E0002000E002207047AC220000F0B557464646C0B483B0019088461600DE
:4002C0001078FFF7BFFF800285B2B078FFF7BAFF800184B23079FFF7B5FF07017079FFF7B1FF384380B22C43044343461C80082342469370002417E02700072C0FD8650092
:400300002D19EB1DF05CFFF79DFF03019A460835705DFFF797FF53461843C0B200E000204744F8700134E4B2072CE5D9019803B00CBC90469A46F0BD10B586B0002815D083
:40034000038802AC02930023237163718278A271E3716B460593C11C0822684601F06EFB200000F0F5FC002802D102E0022000E0012006B010BDC04670B500F0D3FC114CA0
:4003800000262670104DA560104B1B686360200000F092FB01232370E660A5600C4B1B686360200000F088FB02232370A560094B1B68636000F07CFA07491C2000F0C4FFB3
:4003C00070BDC04634080020FFFF1F80A0002E40C0002E40E0002E4075040000104B1878C0B2002819D15A78D2B29B78DBB29A4205D20B4A93785078181AC0B20EE0084BA9
:400400005A78D2B29B78DBB29A4207D9044A93785078181A1030C0B200E010207047C04664010020124A93780133DBB293709378DBB20F2B02D900220D4B9A700C4B1B786D
:40044000002B0BD00A4A53780133DBB253705378DBB20F2B02D90022054B5A70044A537891785B1A59424B41DBB213707047C0466401002070B5FA229200464B9A808022FA
:400480005201454B1A60454B1B68DA0706D49A0706D45A0706D41B0706D406E0002404E0012402E0022400E003243A4B9A78D2B264013B4B9C4664442368DB0202D46168A6
:4004C000490D02E06168C90889B2364B500082189000C1522F4A9178C9B22068000C0F2528404D0069188D005D19A8709178C9B2A5682D0E4800411888001818C570917868
:40050000C9B2A068000CC0B24D0069188D005D1928719178C9B2A068000AC0B24D0069188D005D1968719178C9B2A568EDB2480041188800181885719178C9B2E5682D0E13
:400540004800411888001818C5719178C9B2E068000CC0B24D0069188D005D1928729178C9B2E068000AC0B24D0069188D005D1968729278D2B2E068C0B251008A18910078
:400580005B189872FFF74EFF226801231343236070BDC0466401002000002E4008002E40A0002E401009002010B5FFF717FF00280BD0064A53780133DBB253705378DBB246
:4005C0000F2B02D90022014B5A7010BD6401002010B582B0041E17D0FFF700FF6B46D87107331B78002B11D00A4B5B78DBB25A00D3189900084B59180C22200001F01EFAE6
:40060000FFF7D2FF002002E0022000E0022002B010BDC046640100201009002030B589B062B6FFF7A9FE00F051FC444800F0DAFC00F05AFD424800F0D5FC424800F0D2FC4E
:40064000414800F0CFFC414800F0CCFC404800F0C9FC404800F0C6FC3F4B9B889BB2002B08D0002000F0D4FC3B4A9388013B9BB2938002E0012000F0CBFC00F09DFC0028FA
:4006800034D00D282CD105AC344A21006846FFF70FFE2000FFF750FE314800F0A3FC2288A378304C3049200001F0DAF9200000F099FC00240BE005AB1B19DA78294D2B4925
:4006C000280001F0CDF9280000F08CFC0134072CF1DD002000F092FC00221F4B9A6005E01D4A93682249C854013393602148FFF76FFF0028B0D11F4B1A8892B29B78DBB2C6
:40070000184C1949200001F0ABF9200000F06AFC00240CE0174B1B19DA78D2B2114D1349280001F09DF9280000F05CFC0134072CF0DD114800F056FC8EE7C04620240000E4
:400740002C240000382400005C2400007C2400009C240000BC24000064010020A9080020E424000044080020EC240000F8240000A808002014080020E0240000F0B500253D
:40078000002711E0BB00C658F3B2FF22964308E06A008A181478A419527822700135013BDBB2002BF4D10137002FEBD0F0BDC0460323044A1360044A13600022034B1A60BA
:4007C0007047C0463000304030003140000E3F4010B50A00002101F03AF910BD10B501F001F903680C2B00D1FEE7FEE710B50300084A1068C318084A9A1A802A02DC054A56
:40080000136005E001F0EEF80C2303600120404210BDC046C4000020D809002070B50F4E0F4D13E029686B68AC68002202E001C901C30432A242FAD1E868002202E0002167
:4008400002C304328242FAD11035013E002EE9D101F0CEF8FFF7E2FEFEE7C046010000000027000010B50E4A136801218B43136000230AE0032B03D89A000A49505800E05C
:4008800009489900094A885001332F2BF2D9FFF713FC034A116801230B43136010BDC0460000104000000000DD07000000000020054B1A6801210A431A601B68194201D188
:4008C000012000E00020704704002E4010B50E4A0E4B1A60FFF7ECFF1C2000F01FFD0C4A116801230B431360F0231B0100E0013B002B03D0064A1268D207F8D5002B01D12B
:40090000012000E0002010BD0112000000002E4010002E4003B2002B0DDB094A1168094B0B400004034313601268074B1340984203D0012002E0022000E000207047C0462C
:4009400014002E40FFFF00800000FF7F002809D10C4B19680C4A0A401A601B68DB040CD501300DE0074B1A68802149010A431A601B680B4203D1012002E0002000E0002057
:400980007047C04614002E40FFEFFFFF70B5841EE4B20D2C35D88C1EE4B2052C03D9002B31D1012931D1032A31D8904231D3914231D31C4D2C68240AE4B20F26B443204390
:4009C0002E68194C3440000204432C602C686040F0242401204220D1002B00D002234901C9B29200D2B2114319430E4A1368EE2083430B4313601368034099420FD0ED3843
:400A00000EE002200CE002200AE0022008E0022006E0022004E0022002E0012000E0002070BDC04614002E40FFF0FFFF002809D10B4B1A6810218A431A601B6819420BD0C4
:400A400001300CE0064B1A6810210A431A601B68194203D1012002E0002000E00020704714002E40002809D10B4B1A6801218A431A601B6819420BD001300CE0064B1A6894
:400A800001210A431A601B68194203D1012002E0002000E00020704714002E40054B18601B681B041B0C984201D0012000E000207047C04604002E4010B503785B01204AAD
:400AC000944663441F4A41680A431A6003785B01634419681C4A11401C4A44682240914224D182681A6103785B0163441A6981688A421DD1C2685A6103785B0163445A697B
:400B0000C1688A4216D1012252429A6103785B0163449A6901320FD10022DA6103785B016344DB69002B09D0012008E0012006E0012004E0012002E0012000E0002010BD6A
:400B4000A0002E40800080007F007F007FFF7FFF10B503781B01104A944663440F4A41680A431A6003781B01634419680C4A11400C4A4468224091420AD182685A600378D6
:400B80001B0163445A6883689A4203D0012002E0012000E0002010BD20002E4008008000F7007F00F7FF7FFF70B500240AE063001B199800104B1818FFF7CAFF002805D17B
:400BC0000134E4B2072CF2D9002500E00125002D0BD00FE0230108486030C018FFF76CFF002806D10134E4B200E000240F2CF1D900E00125280070BD18250000002809D160
:400C00000C4B19680C4A0A401A601B689B040CD501300DE0074B1A68802189010A431A601B680B4203D1012002E0002000E000207047C04614002E40FFDFFFFF10B5802292
:400C40001206344B1A60344A136801218B431360C8231B0200E0013B002B03D02E4A1268D207F8D4002B4AD01C2000F061FB2B491C2000F069FB03211C2000F077FB1F207C
:400C8000FFF748FE00281AD1FFF760FE002818D1FFF7B4FF002816D10023022203210430FFF774FE002810D10130FFF7BFFE00280DD1FFF7D7FE00280BD001230AE00123CE
:400CC00008E0012306E0012304E0012302E0012300E00023002B14D1FFF766FF002812D10F48FFF7DBFE00280FD10B4B1A6807218A431A601B68194209D0013008E00120F1
:400D000006E0012004E0012002E0012000E0002010BDC04600042E4010002E404D0D00000112000010B5084B1B78002B02D1FFF785FF00E00020002804D10122024B1A705A
:400D4000FFF7C4FD10BDC0467C0100207047C046F8B54F464646C0B4040001200023984691E04C4B1B6832041A427AD12379002B01D1002701E08027BF036379002B07D1D6
:400D80002B01454A94466344226852055A6009E080235B031F432B013F4A944663442268D2005A60A379072B03D81B041F43B94603E080231B031F43B946E379002B03D0BC
:400DC00004234A461A43914600232AE0032B13D92801324A94466044026894465907CA1AD1003831FF228A4067469743E268D25C8A403A43026012E02801274A944660443F
:400E0000826894465907CA1AD1001831FF228A4067469743E268D25C8A403A4382600133DBB2A279934201D2072BCFD91C2000F07FFA2B01184A94466344194A4F46174319
:400E40001F60227A002A04D0196803220A431A6003E0196801220A431A601C2000F05EFA00207600F6B2002807D00135EDB201E001260025072D00D873E7002806D04346EE
:400E80000133DBB298464346022BF1D90CBC90469946F8BD08002E4020002E402C002E400800800010B500F075F810BD10B500F01DF810BD10B5044A1368802109060B43A9
:400EC0001360FFF7EFFF10BD0000254010B5064B1B78002B04D1FFF7E9FF0122024B1A70FFF7E8FF10BDC0467E010020154A164B1A600023154A13601549164A1160164ADB
:400F000016490A6007201649086016490B6006381549086015490A60154A13600421154A1160154A1360154A1360154A1360154A1360154A1360154A13601268144B1A803E
:400F40007047C0460B000002000025404000254001000A00480025400700008000032540040325401003254044002540000225400402254050002540880E2540C80E2540AC
:400F8000480F2540080F2540C80F2540880F25408001002005490B68F0229343603A13430B60034B1A88034B1A6070470003024080010020880F254010B500F047FC0028AB
:400FC00002D000F03DFC00E00020054B1A68D8239B001A4203D01A00014B1A60002010BDC00F254070B50500002402E000F036FC0134285D0028F9D170BDC04610B500F078
:401000002DFC0D2000F02AFC0A2000F027FC10BD044A1368DBB201218B430840184310607047C046000204400004000C014B18607047C046880220400004000C014B18608F
:401040007047C046940220400004000C014B18607047C0468C02204070B504000D0000F0E8FBAC40024B1C6000F0E7FB70BDC0460800204010B500F0DCFB064A116840235B
:401080000B43136000F0D9FB18214020FFF7E4FF10BDC04600002040014B18607047C046B802204010B50D4C8023DB042360236823600020FFF7B8FF236823600C22084BDE
:4010C0001A600120FFF7E8FF3122064B1A606420FFF7B2FF3220FFF7B7FF10BD80022040A4022040A802204010B5064B1B78002B04D1FFF7D7FF0122024B1A70FFF7BAFF54
:4011000010BDC04682010020074B1B78272B05D8064B1B78DBB2064A136004E0054B1B78DBB2034A1360704702F3FF0F42F3FF0F20FF0B40C1F1FF0F00230AE0204A1268C5
:401140003F210A401F49C95C8A4201D1033303E001332D2BF2D903231B4A12781B2A16D8302B05D1194B1B78DBB2194A136006E0182B04D1174B1B78DBB2154A13601649A6
:401180000B681F229343173A13430B6016E0302B05D1124B1B78DBB20D4A136006E0182B04D10F4B1B78DBB2094A13600A4A13681F218B430B4909780B4313607047C046B7
:4011C0002CFF0B407826000002F3FF0F3FF3FF0F28FF0B403EF3FF0F34FF0B40C3F1FF0FC2F1FF0FC0F1FF0F00230AE00D4A12683F210A400C49C95C8A4201D1033303E06E
:4012000001332D2BF2D9032308490868084A02400A60084A944663441B78DBB2064A13607047C0462CFF0B407826000000002240FFFFFFBF4DF3FF0F28FF0B40034B18683F
:401240008023DB05184000D0012070470000224010B50B4A136801218B431360094B1A68094B1A60094A12685A60FFF765FFFFF74BFF074A116802230B43136010BDC04649
:4012800050000C4034FF0B408401002020FF0B4024002C4030B500230AE0134A12683F210A401249C95C8A4201D1033303E001332D2BF2D903230E490A68022082430A6034
:4012C0000C4C21681F2291430B4805682A400A4322604168094A1160094A944663441B78DBB2084A136030BD2CFF0B407826000024002C4034FF0B408401002020FF0B40BB
:401300004DF3FF0F28FF0B40034B1B680220184000D001207047C04624002C401F2318401E3B8340014A13607047C04600E100E01F2318401E3B8340014A13607047C04641
:4013400080E100E001BE704770B504000D001F2802D90020FFF7F6FF1034A40080239B059C4664442068256070BDC04670B504000E00032902D90020FFF7E4FF1F2C02D901
:401380000020FFF7DFFF03252540ED00063500F050FAA408A400074B9C46644421680323AB4099430B003100A9401943216000F044FA70BD00E400E010B5040006E0084B85
:4013C000586800F02DFA074B9C46644480231B029C42F4D8024B9868604300F021FA10BDC80000200080FFFF70B582B000F070F9002862D000F01DFA0500314A1168012374
:401400000B43136000230AE02E4A12683F210A402D49C95C8A4201D1033303E001332D2BF2D903230021294A1160294A1268D20606D1274802681F318A4313390A430260E1
:40144000244C2168244A1140244A5A438023DB019C466244D20B013A5205520D0B001343A0225203134323601D4B1B680193302000F002FA1B4A13688021C9050B431360B8
:401480002668194B1E40002407E00120FFF794FF1034A30533430F4A1360EE2CF5D90120FFF78AFFFF239B051E430A4B1E60019A0B4B1A60280000F0C0F902B070BDC0465A
:4014C00050000C402CFF0B407826000028FF0B4034FF0B400800224000F800C040420F003000104000002240FFFF3FC010B5034B1B7B584300F094F910BDC046C80000203E
:40150000F0B55F4656464D464446F0B483B0040000F08FF90190FFF791FE002804D0FFF763FE01239A4601E000239A46FFF7ECFE002808D0182C01D0302C07D1FFF7AAFE3D
:4015400001239B4604E000239B4601E000239B46E61E2D2E74D8464B1B78DBB29C4208D8444B1B78DBB29946434B1B78DBB2984631E0424B1B78DBB29C4208D8404B1B78CB
:40158000DBB299463F4B1B78DBB2984623E03E4B1B78DBB29C4208D83C4B1B78DBB299463B4B1B78DBB2984615E03A4B1B78DBB29C4208D8384B1B78DBB29946374B1B78D4
:4015C000DBB2984607E0364B1B78DBB29946354B1B78DBB29846344B9F5D2F2F09D92A2C07D91922314B1A60052000F019F9192503E02E4B1D683F231D40BD4206D92A4B21
:401600009A5D2A4B1A60052000F00AF9254B9C4664442378DBB2264A1360264B4A461A60254B42461A600520FFF760FFBD420AD21D4B9A5D1D4B1A60052000F0F1F802E044
:401640000020FFF77FFE5346012B01D1FFF7CCFE5B46012B01D1FFF7FBFD019800F0EDF803B03CBC90469946A246AB46F0BDC04640F3FF0F41F3FF0F42F3FF0F43F3FF0F8F
:4016800044F3FF0F45F3FF0F46F3FF0F47F3FF0F48F3FF0F49F3FF0F4AF3FF0F4BF3FF0F4CF3FF0F4DF3FF0F782600002CFF0B4028FF0B401CFF0B4020FF0B40034B186827
:4016C000C0231B02184000D00120704700010B40034B1B68002B01DA012000E0002070470000224010B500F0A4F8044A1368C02109020B43136000F0A0F810BD00010B4025
:4017000010B500F096F808490A68084B1A408024E40122430A600A6813408022120213430B6000F08AF810BD00010B40FF3FFFFF70B5050000F07DF80400FFF7BFFF00282C
:4017400003D0FFF7DDFF012100E0002108482840084A1568084B2B40184310601368012901D1FFF7BFFF200000F067F870BDC0460404040010020B40FBFBFBFF10B5244B37
:401780001B685B0715D5234B5B685B070ED5224B596A042001401F4C62688A4362605A6A82435A629B69002B00D098470420FFF7BFFF174B1B685B0518D5164B5B685B05DA
:4017C00010D5154B596A8022D2001140114842688A434260596A114A0A405A62DB69002B00D098478020C000FFF7A2FF084B1B685B030CD5074B5B685B0304D5064B1B6A3A
:40180000002B00D098478020C002FFF791FF10BD10020B40DC000020A4010020FFFBFFFF0230800803D00138FDD1C046C046C0467047EFF3108072B6704780F31088704793
:40184000014B18687047C04640032540024B1B681F2018407047C04608032540044B1B681F221340082BF9D0024B18607047C046080225404002254070B50400FFF7D9FFB2
:401880000500102C05D8104A136803218B43136016E0202C07D80C490B6803229343023A13430B600CE0302C07D807490B6803229343013A13430B6002E00020FFF742FDD7
:4018C0002800FFF7BAFF70BD30001040002243088B4274D303098B425FD3030A8B4244D3030B8B4228D3030C8B420DD3FF22090212BA030C8B4202D31212090265D0030B3A
:401900008B4219D300E0090AC30B8B4201D3CB03C01A5241830B8B4201D38B03C01A5241430B8B4201D34B03C01A5241030B8B4201D30B03C01A5241C30A8B4201D3CB0218
:40194000C01A5241830A8B4201D38B02C01A5241430A8B4201D34B02C01A5241030A8B4201D30B02C01A5241CDD2C3098B4201D3CB01C01A524183098B4201D38B01C01A2A
:40198000524143098B4201D34B01C01A524103098B4201D30B01C01A5241C3088B4201D3CB00C01A524183088B4201D38B00C01A524143088B4201D34B00C01A5241411A01
:4019C00000D20146524110467047FFE701B5002000F006F802BDC0460029F7D076E770477047C046014B18687047C046440100200E4B70B500251E000D4CE41AA410A5425D
:401A000004D0AB00F35898470135F8E700F066FE084B00251E00084CE41AA410A54204D0AB00F35898470135F8E770BDE8260000E8260000E8260000F0260000002310B5FE
:401A40009A4203D0CC5CC4540133F9E710BD03008218934202D019700133FAE7704700000EB410B59DB002A9029008610B48822488604861012040421FABC881084804CB24
:401A8000A400006801938C8100F06EF80023029A13701DB010BC08BC03B01847FFFFFF7F44010020F0B58E6885B007000C00039201939E4243D890238A89DB001A423ED07F
:401AC00003250969236801985B1A029363695D43EB0F5D19029B6D1001331B18AB4200D91D00530510D52900380000F037FB061E14D0029A2169FFF7A1FFA289194B134078
:401B000080221343A38112E02A00380000F086FB061E0CD12169380000F0D4FA0C23402201203B60A38940421343A38117E0029B2661F61826606561019EED1AA560019B12
:401B4000B34200D21E0032000399206800F0A5FA0020A3689B1BA36023689E19266005B0F0BDC0467FFBFFFFF0B59FB0029005938B890F0016001B0610D50B69002B0DD135
:401B8000402100F0EBFA38603861002804D10C23029A01381360D8E040237B61002306AD6B6120336B761033AB7634002378002B03D1A31B049312D003E0252BF9D00134E3
:401BC000F4E7A31B320039000298FFF76BFF431C00D1B4E06A69049B944663446B612378002B00D1ABE00122002352426A6002A95432521801342B60EB60AB601370AB655A
:401C0000534E21780522300000F03CFA002807D00123801B83402A68013413432B60EFE72B68DA0604D55322202102A8121811701A0704D553222B2102A8121811702278ED
:401C40002A2A03D0099B00200A210EE0059A111D12680591002A01DB099204E05242EA60022213432B6001340BE02278303A092A04D84B4301349B180120F6E7002800D07C
:401C8000099323782E2B1ED163782A2B0AD1059B02341A1D1B680592002B01DA01235B42079310E000230A201A0001346B6021783039092904D84243013452180123F6E786
:401CC000002B00D00792234E21780322300000F0D9F9002806D04023801B83402A68013413432B60217806221B48661C297600F0C9F9002812D0194B002B06D10722059B98
:401D0000073393430833059314E005AB00933A00134B2900029800E000BF07E005AB00933A000F4B2900029800F08AF80390039B013304D06B69039A9B186B6135E7BB8913
:401D40000B985B0601D5012040421FB0F0BDC046A8260000AE260000B226000000000000A51A0000F7B5170001938A680B6900900C00934200DA130022003B604332127854
:401D8000002A01D001333B6023689B0602D53B6802333B60062523681D401ED0230043331B785A1E9341226892061CD53020E1184331087021005A1C45310978A218433265
:401DC000023311700FE022000123193201990098089EB047431C0ED00135E3683A689B1A9D42F0DBDAE72200019943320098089DA847431C02D10120404220E0062320687B
:401E0000E1683A6803400025042B03D18D1AEB43DB171D40A3682269934201DD9B1AED180027BD420AD0220001231A3201990098089EB047431CDED00137F2E70020FEBDCB
:401E4000F0B58BB006920A0043320793059004920A7E0C00109B6E2A00D1ABE011D8632A22D009D8002A00D1B5E0582A00D0C5E045310A70814A4FE0642A1DD0692A1BD0C0
:401E8000BCE0732A00D1AAE009D86F2A29D0702A00D0B3E0202209680A43226037E0752A1FD0782A33D0A9E00E001A684236111D196013683370A4E021681A68080606D485
:401EC000490604D5111D19600023D55E02E0111D19601568002D3BDA2D23049A6D42137036E021681A68080606D4490604D51568111D1960ADB202E0111D196015685F4BF1
:401F0000227E039308276F2A1DD00A271BE022007821453211705A4A19680392081D226818600D68100602D4500600D5ADB2D30702D520231A4322601027002D03D12023BD
:401F400022689A4322602300002243331A7002E00A274A4B03936368A360002B09DB0422216891432160002D05D1049E002B11D07BE0002D79D0049E28003900FFF72CFD70
:401F8000039B013E5B5C280033703900FFF79EFC051EF1D1082F09D12368DB0706D563682269934202DC3023013E3370049B9B1B23612BE009681A68080607D4490605D594
:401FC000111D19601368A28A1A8004E0111D1960136862691A600023049E236116E01A68111D1960166800216268300000F04AF8002801D0801B6060636803E026004236DB
:402000003270012323610023049A1370079B09AA00932100069B0598FFF7A4FE431C02D10120404227E02369320006990598079DA847431CF4D0236800259B070FD4099BCE
:40204000E068984217DA180015E022000123193206990598079EB047431CE1D00135E368099A9B1A9D42F0DBE9E72600039B42361B7833708EE70BB0F0BDC046B926000040
:40208000CA260000C9B28218904204D003788B4202D00130F8E70020704710B5884202D98B18984201D3002305E09B1A013A08D3995C8154FAE7934203D0CC5CC45401331F
:4020C000F9E710BD70B50500002944D00C1F2368002B00DAE418280000F0D8F81E4A13681100002B02D16360146031E0A3420DD92268A018834203D118685B6882182260EE
:4021000063600C6024E0A24203D813005A68002AF9D11E689819A0420BD12168711858181960824214D110685268411819605A600EE0A04202D90C232B6009E0216860183E
:40214000824203D1106852684118216062605C60280000F09CF870BDD0010020032370B5CD1C9D43083506000C2D01D20C2501E0002D01DBA94202D90C23336048E0300015
:4021800000F084F8234B1C681A002100002913D00B685B1B0DD40B2B02D90B60CC181EE08C4202D1636813601AE04B6863600C0016E00C004968E9E7174C2368002B03D187
:4021C000300000F051F820602900300000F04CF8431C18D00323C41C9C43A0420DD12560300000F054F8200007220B30231D9043C31A0ED05A42E2500BE0211A300000F026
:4022000033F8431CEBD10C233000336000F03FF8002070BDD0010020CC010020F8B506000C001500002904D11100FFF797FF040018E0002A03D1FFF745FF2C0012E000F063
:4022400027F885420ED929003000FFF787FF071E07D021002A00FFF7F1FB21003000FFF731FF3C002000F8BD002370B5064C050008002360FEF7BAFA431C03D12368002B4F
:4022800000D02B6070BDC046D0090020704770470B1F1A68101F002A04DA891804390B68D0180438704700000000000054020000A8020000580200005C0200006002000000
:4022C00064020000680200006C02000070020000A4020000A4020000A4020000A4020000A4020000A4020000A402000074020000780200007C02000080020000840200002E
:4023000088020000A4020000A4020000A4020000A4020000A4020000A4020000A4020000A4020000A4020000A4020000A4020000A4020000A4020000A4020000A402000059
:40234000A4020000A4020000A4020000A4020000A4020000A4020000A4020000A4020000A4020000A4020000A40200008C0200009002000094020000980200009C0200004D
:40238000A002000069643A20252330325820000070776D5F76616C3A20256900534E3A202523303258205454433A20252330325820646174613A202569000000534E3A2053
:4023C00025233032582076616C3A202569204C494D4954232323232323232323232323232323232323232323232323232323232323232323232323232323232323232323CA
:40240000232323232323232323232323230000006E6F74207265636F676E697A65640000737461727475700A0D000000666F726D61743A0D0A0000005858582058582058E6
:40244000582058582058582058582058582058582058582058580D0A00000000207C20207C20207C20207C20207C20207C20207C20207C20207C20207C0D0A0020696420E1
:402480007C20207C20207C20207C20207C20207C20207C20207C20207C0D0A00202020646C63207C20207C20207C20207C20207C20207C20207C20207C0D0A0020202020BF
:4024C00020202030202031202032202033202034202035202036202037202864617461290D0A000073656E7420000000253033582025303258200000253032582000000026
:4025000000300F40000800400F4000081B805780C640D44004420F4000000000080088000000000001000000080088000000000002000000080088000000000003000000A6
:40254000080088000000000004000000080088000000000005000000080088000000000006000000080088000000000007000000080088000000000000000000A80080004D
:40258000FFFFFFFF0000000001000000A8008000FFFFFFFF0000000002000000A8008000FFFFFFFF00000000030000000000000000000000000000000400000000000000CD
:4025C00000000000000000000500000000000000000000000000000006000000000000000000000000000000070000000000000000000000000000000800000000000000C1
:402600000000000000000000090000000000000000000000000000000A0000000000000000000000000000000B0000000000000000000000000000000C0000000000000070
:4026400000000000000000000D0000000000000000000000000000000E0000000000000000000000000000000F000000000000000000000000000000030405060708090AFC
:402680000B0C0E0F101112131415161718191B1C1D1E1F2021222325262728292A2B2E2F3031323334354300232D302B2000686C4C006566674546470030313233343536C7
:4026C00037383941424344454600303132333435363738396162636465660000F8B5C046F8BC08BC9E4670470D02000065080000F8B5C046F8BC08BC9E467047E50100004D
:4027000010270000C0000020880000009008000000000000D8090020010000000000204E409C000028000000005A6202F00000000404040000000000000000000000000034
:402740000000000000000000000000000000000000000000A6260000000000000000000000000000000000000000000000000000000000000000000000000000000000008D
:402780000000000000000000000000000000000000000000E40000200000000000000000000000000000000000000000000000000000000000000000000000000000000015
:4027C00000000000000000000000000000000000000000000000000000000000000000000000000000000000000000000000000000000000000000000000000000000000D9
:402800000000000000000000000000000000000000000000000000000000000000000000000000000000000000000000000000000000000000000000000000000000000098
:402840000000000000000000000000000000000000000000000000000000000000000000000000000000000000000000000000000000000000000000000000000000000058
:402880000000000000000000000000000000000000000000000000000000000000000000000000000000000000000000000000000000000000000000000000000000000018
:020000040001F9
:0200000490303A
:020000002424B6
:0200000490402A
:4000000000000000000000000000000000000000000000000000000000000000000000000000000000000000000000000000000000000000000000000000000000000000C0
:0200000490501A
:0C0000000002100C11A00001101835C403
:0200000490600A
:0100000001FE
:00000001FF